S00F000073646B323032372E7372656308
S11300000C9434000C9440000C946F000C943E004B
S11300100C943E000C943E000C943E000C943E0064
S11300200C943E000C943E000C943E000C943E0054
S11300300C943E000C943E000C943E000C943E0044
S11300400C943E000C943E000C943E000C943E0034
S11300500C943E000C943E000C943E000C943E0024
S11300600C943E000C943E0011241FBECFEFD8E048
S1130070DEBFCDBF0E94A2000C94B3000C9400001C
S11300801F920F920FB60F9211242F933F934F9309
S11300905F936F937F938F939F93AF93BF93CF930C
S11300A0DF93EF93FF93C0E0D0E003C00E9494007D
S11300B02196CA30D105D4F3FF91EF91DF91CF910E
S11300C0BF91AF919F918F917F916F915F914F916C
S11300D03F912F910F900FBE0F901F9018951F9274
S11300E00F920FB60F9211240F900FBE0F901F9016
S11300F01895E9E6F0E080818E6F808380818B6FB4
S113010080838DB383608DBB7894089595B180E22C
S1130110892785B92FEF89E698E1215080409040E6
S1130120E1F700C00000089595B180E2892785B900
S11301302FEF81EE94E0215080409040E1F700C021
S1130140000008950E94A9000E9479000E94860080
S1130150FDCF84B1806284B98AB1837F8AB98BB1BF
S10D01608C608BB90895F894FFCF6A
S9030000FC
