:100000000C9434000C943E000C943E000C943E0082
:100010000C943E000C943E000C943E000C943E0068
:100020000C943E000C943E000C943E000C943E0058
:100030000C943E000C943E000C943E000C943E0048
:100040000C943E000C943E000C943E000C943E0038
:100050000C943E000C943E000C943E000C943E0028
:100060000C943E000C943E0011241FBECFEFD8E04C
:10007000DEBFCDBF0E9459000C9462000C940000BA
:1000800085B1806285B92FE38DE093E021508040F7
:100090009040E1F700C0000085B18F7D85B92FE366
:1000A0008DE093E0215080409040E1F700C00000D7
:1000B00008950E945E000E944000FDCF84B18062DE
:0800C00084B90895F894FFCF04
:00000001FF
