:100000000C9434000C9440000C946F000C943E004F
:100010000C943E000C943E000C943E000C943E0068
:100020000C943E000C943E000C943E000C943E0058
:100030000C943E000C943E000C943E000C943E0048
:100040000C943E000C943E000C943E000C943E0038
:100050000C943E000C943E000C943E000C943E0028
:100060000C943E000C943E0011241FBECFEFD8E04C
:10007000DEBFCDBF0E94D4000C94E6000C940000BB
:100080001F920F920FB60F9211242F933F934F930D
:100090005F936F937F938F939F93AF93BF93CF9310
:1000A000DF93EF93FF93C0E0D0E003C00E94B8005D
:1000B0002196CA30D105D4F3FF91EF91DF91CF9112
:1000C000BF91AF919F918F917F916F915F914F9170
:1000D0003F912F910F900FBE0F901F9018951F9278
:1000E0000F920FB60F9211242F933F934F935F936C
:1000F0006F937F938F939F93AF93BF93CF93DF9330
:10010000EF93FF93C0E0D0E003C00E94C6002196A9
:10011000CA30D105D4F3FF91EF91DF91CF91BF9118
:10012000AF919F918F917F916F915F914F913F918F
:100130002F910F900FBE0F901F901895E9E6F0E0F9
:1001400080818E6F808380818B6F80838DB383608D
:100150008DBB089595B180E2892785B92FEF89E697
:1001600098E1215080409040E1F700C000000895E0
:1001700095B180E2892785B92FEF81EE94E0215077
:1001800080409040E1F700C00000089595B180E202
:10019000892785B92FEF83ED90E32150804090406F
:1001A000E1F700C0000008950E94DC000E949E005C
:1001B00078940E94AA00FDCF84B1806284B98AB18C
:1001C000837F8AB98BB18C608BB90895F894FFCF87
:00000001FF
